{
  "_format": "hh-sol-artifact-1",
  "contractName": "Arisan",
  "sourceName": "contracts/Arisan.sol",
  "abi": [
    {
      "inputs": [
        {
          "internalType": "uint256",
          "name": "_amount",
          "type": "uint256"
        },
        {
          "internalType": "uint256",
          "name": "_maxParticipants",
          "type": "uint256"
        }
      ],
      "stateMutability": "nonpayable",
      "type": "constructor"
    },
    {
      "anonymous": false,
      "inputs": [
        {
          "indexed": true,
          "internalType": "address",
          "name": "admin",
          "type": "address"
        },
        {
          "indexed": false,
          "internalType": "uint256",
          "name": "amount",
          "type": "uint256"
        },
        {
          "indexed": false,
          "internalType": "uint256",
          "name": "maxParticipants",
          "type": "uint256"
        }
      ],
      "name": "ArisanCreated",
      "type": "event"
    },
    {
      "anonymous": false,
      "inputs": [
        {
          "indexed": true,
          "internalType": "address",
          "name": "user",
          "type": "address"
        }
      ],
      "name": "JoinedGroup",
      "type": "event"
    },
    {
      "anonymous": false,
      "inputs": [
        {
          "indexed": true,
          "internalType": "address",
          "name": "user",
          "type": "address"
        },
        {
          "indexed": false,
          "internalType": "uint256",
          "name": "amount",
          "type": "uint256"
        }
      ],
      "name": "PaymentReceived",
      "type": "event"
    },
    {
      "anonymous": false,
      "inputs": [
        {
          "indexed": true,
          "internalType": "uint256",
          "name": "round",
          "type": "uint256"
        },
        {
          "indexed": true,
          "internalType": "address",
          "name": "winner",
          "type": "address"
        },
        {
          "indexed": false,
          "internalType": "uint256",
          "name": "prize",
          "type": "uint256"
        }
      ],
      "name": "WinnerSelected",
      "type": "event"
    },
    {
      "inputs": [],
      "name": "admin",
      "outputs": [
        {
          "internalType": "address",
          "name": "",
          "type": "address"
        }
      ],
      "stateMutability": "view",
      "type": "function"
    },
    {
      "inputs": [],
      "name": "allPaid",
      "outputs": [
        {
          "internalType": "bool",
          "name": "",
          "type": "bool"
        }
      ],
      "stateMutability": "view",
      "type": "function"
    },
    {
      "inputs": [],
      "name": "arisanActive",
      "outputs": [
        {
          "internalType": "bool",
          "name": "",
          "type": "bool"
        }
      ],
      "stateMutability": "view",
      "type": "function"
    },
    {
      "inputs": [],
      "name": "closeArisan",
      "outputs": [],
      "stateMutability": "nonpayable",
      "type": "function"
    },
    {
      "inputs": [],
      "name": "contributionAmount",
      "outputs": [
        {
          "internalType": "uint256",
          "name": "",
          "type": "uint256"
        }
      ],
      "stateMutability": "view",
      "type": "function"
    },
    {
      "inputs": [],
      "name": "currentRound",
      "outputs": [
        {
          "internalType": "uint256",
          "name": "",
          "type": "uint256"
        }
      ],
      "stateMutability": "view",
      "type": "function"
    },
    {
      "inputs": [],
      "name": "drawWinner",
      "outputs": [],
      "stateMutability": "nonpayable",
      "type": "function"
    },
    {
      "inputs": [],
      "name": "getParticipants",
      "outputs": [
        {
          "components": [
            {
              "internalType": "address",
              "name": "addr",
              "type": "address"
            },
            {
              "internalType": "bool",
              "name": "hasWon",
              "type": "bool"
            }
          ],
          "internalType": "struct Arisan.Participant[]",
          "name": "",
          "type": "tuple[]"
        }
      ],
      "stateMutability": "view",
      "type": "function"
    },
    {
      "inputs": [],
      "name": "getParticipantsCount",
      "outputs": [
        {
          "internalType": "uint256",
          "name": "",
          "type": "uint256"
        }
      ],
      "stateMutability": "view",
      "type": "function"
    },
    {
      "inputs": [
        {
          "internalType": "uint256",
          "name": "round",
          "type": "uint256"
        }
      ],
      "name": "getWinner",
      "outputs": [
        {
          "internalType": "address",
          "name": "",
          "type": "address"
        }
      ],
      "stateMutability": "view",
      "type": "function"
    },
    {
      "inputs": [
        {
          "internalType": "uint256",
          "name": "",
          "type": "uint256"
        },
        {
          "internalType": "address",
          "name": "",
          "type": "address"
        }
      ],
      "name": "hasPaid",
      "outputs": [
        {
          "internalType": "bool",
          "name": "",
          "type": "bool"
        }
      ],
      "stateMutability": "view",
      "type": "function"
    },
    {
      "inputs": [
        {
          "internalType": "address",
          "name": "",
          "type": "address"
        }
      ],
      "name": "isParticipant",
      "outputs": [
        {
          "internalType": "bool",
          "name": "",
          "type": "bool"
        }
      ],
      "stateMutability": "view",
      "type": "function"
    },
    {
      "inputs": [],
      "name": "joinGroup",
      "outputs": [],
      "stateMutability": "nonpayable",
      "type": "function"
    },
    {
      "inputs": [],
      "name": "maxParticipants",
      "outputs": [
        {
          "internalType": "uint256",
          "name": "",
          "type": "uint256"
        }
      ],
      "stateMutability": "view",
      "type": "function"
    },
    {
      "inputs": [
        {
          "internalType": "uint256",
          "name": "",
          "type": "uint256"
        }
      ],
      "name": "participants",
      "outputs": [
        {
          "internalType": "address",
          "name": "addr",
          "type": "address"
        },
        {
          "internalType": "bool",
          "name": "hasWon",
          "type": "bool"
        }
      ],
      "stateMutability": "view",
      "type": "function"
    },
    {
      "inputs": [],
      "name": "payContribution",
      "outputs": [],
      "stateMutability": "payable",
      "type": "function"
    },
    {
      "inputs": [
        {
          "internalType": "uint256",
          "name": "",
          "type": "uint256"
        }
      ],
      "name": "winners",
      "outputs": [
        {
          "internalType": "address",
          "name": "",
          "type": "address"
        }
      ],
      "stateMutability": "view",
      "type": "function"
    }
  ],
  "bytecode": "0x608060405234801561001057600080fd5b50604051611cd7380380611cd7833981810160405281019061003291906101bb565b60008211610075576040517f08c379a000000000000000000000000000000000000000000000000000000000815260040161006c90610258565b60405180910390fd5b600181116100b8576040517f08c379a00000000000000000000000000000000000000000000000000000000081526004016100af906102c4565b60405180910390fd5b336000806101000a81548173ffffffffffffffffffffffffffffffffffffffff021916908373ffffffffffffffffffffffffffffffffffffffff160217905550816001819055508060028190555060016003819055506001600460006101000a81548160ff0219169083151502179055503373ffffffffffffffffffffffffffffffffffffffff167fd6df7725b267db5522898f612b2bf2560af4657af37176791d80300e9b67ced283836040516101719291906102f3565b60405180910390a2505061031c565b600080fd5b6000819050919050565b61019881610185565b81146101a357600080fd5b50565b6000815190506101b58161018f565b92915050565b600080604083850312156101d2576101d1610180565b5b60006101e0858286016101a6565b92505060206101f1858286016101a6565b9150509250929050565b600082825260208201905092915050565b7f436f6e747269627574696f6e206d757374206265203e20300000000000000000600082015250565b60006102426018836101fb565b915061024d8261020c565b602082019050919050565b6000602082019050818103600083015261027181610235565b9050919050565b7f5061727469636970616e7473206d757374206265203e20310000000000000000600082015250565b60006102ae6018836101fb565b91506102b982610278565b602082019050919050565b600060208201905081810360008301526102dd816102a1565b9050919050565b6102ed81610185565b82525050565b600060408201905061030860008301856102e4565b61031560208301846102e4565b9392505050565b6119ac8061032b6000396000f3fe6080604052600436106100fe5760003560e01c80639ac79e0a11610095578063d84e03d611610064578063d84e03d614610314578063d8bc7fff1461033f578063ed6631991461037c578063f851a440146103a7578063f89ebc68146103d2576100fe565b80639ac79e0a1461027e578063a2fb117514610295578063b2185bb1146102d2578063cabfaa18146102e9576100fe565b80635aa68ac0116100d15780635aa68ac0146101c05780635fa0b65f146101eb5780638a19c8bc14610216578063929066f514610241576100fe565b806324924bf71461010357806335c1d3491461012e5780633cc1161a1461016c5780634129b2c914610183575b600080fd5b34801561010f57600080fd5b506101186103dc565b6040516101259190611030565b60405180910390f35b34801561013a57600080fd5b506101556004803603810190610150919061107c565b6103e2565b604051610163929190611105565b60405180910390f35b34801561017857600080fd5b5061018161043f565b005b34801561018f57600080fd5b506101aa60048036038101906101a5919061107c565b6104ea565b6040516101b7919061112e565b60405180910390f35b3480156101cc57600080fd5b506101d5610527565b6040516101e29190611245565b60405180910390f35b3480156101f757600080fd5b506102006105f3565b60405161020d9190611030565b60405180910390f35b34801561022257600080fd5b5061022b6105f9565b6040516102389190611030565b60405180910390f35b34801561024d57600080fd5b5061026860048036038101906102639190611293565b6105ff565b60405161027591906112c0565b60405180910390f35b34801561028a57600080fd5b5061029361061f565b005b3480156102a157600080fd5b506102bc60048036038101906102b7919061107c565b61089f565b6040516102c9919061112e565b60405180910390f35b3480156102de57600080fd5b506102e76108d2565b005b3480156102f557600080fd5b506102fe610c8a565b60405161030b9190611030565b60405180910390f35b34801561032057600080fd5b50610329610c97565b60405161033691906112c0565b60405180910390f35b34801561034b57600080fd5b50610366600480360381019061036191906112db565b610caa565b60405161037391906112c0565b60405180910390f35b34801561038857600080fd5b50610391610cd9565b60405161039e91906112c0565b60405180910390f35b3480156103b357600080fd5b506103bc610dc8565b6040516103c9919061112e565b60405180910390f35b6103da610dec565b005b60025481565b600581815481106103f257600080fd5b906000526020600020016000915090508060000160009054906101000a900473ffffffffffffffffffffffffffffffffffffffff16908060000160149054906101000a900460ff16905082565b60008054906101000a900473ffffffffffffffffffffffffffffffffffffffff1673ffffffffffffffffffffffffffffffffffffffff163373ffffffffffffffffffffffffffffffffffffffff16146104cd576040517f08c379a00000000000000000000000000000000000000000000000000000000081526004016104c490611378565b60405180910390fd5b6000600460006101000a81548160ff021916908315150217905550565b60006008600083815260200190815260200160002060009054906101000a900473ffffffffffffffffffffffffffffffffffffffff169050919050565b60606005805480602002602001604051908101604052809291908181526020016000905b828210156105ea578382906000526020600020016040518060400160405290816000820160009054906101000a900473ffffffffffffffffffffffffffffffffffffffff1673ffffffffffffffffffffffffffffffffffffffff1673ffffffffffffffffffffffffffffffffffffffff1681526020016000820160149054906101000a900460ff1615151515815250508152602001906001019061054b565b50505050905090565b60015481565b60035481565b60066020528060005260406000206000915054906101000a900460ff1681565b600460009054906101000a900460ff1661066e576040517f08c379a0000000000000000000000000000000000000000000000000000000008152600401610665906113e4565b60405180910390fd5b600254600580549050106106b7576040517f08c379a00000000000000000000000000000000000000000000000000000000081526004016106ae90611450565b60405180910390fd5b600660003373ffffffffffffffffffffffffffffffffffffffff1673ffffffffffffffffffffffffffffffffffffffff16815260200190815260200160002060009054906101000a900460ff1615610744576040517f08c379a000000000000000000000000000000000000000000000000000000000815260040161073b906114bc565b60405180910390fd5b600560405180604001604052803373ffffffffffffffffffffffffffffffffffffffff168152602001600015158152509080600181540180825580915050600190039060005260206000200160009091909190915060008201518160000160006101000a81548173ffffffffffffffffffffffffffffffffffffffff021916908373ffffffffffffffffffffffffffffffffffffffff16021790555060208201518160000160146101000a81548160ff02191690831515021790555050506001600660003373ffffffffffffffffffffffffffffffffffffffff1673ffffffffffffffffffffffffffffffffffffffff16815260200190815260200160002060006101000a81548160ff0219169083151502179055503373ffffffffffffffffffffffffffffffffffffffff167f4ffce5c8359662ccdced3e29f5af038422bfc4d294ad14f6493097c7e171336560405160405180910390a2565b60086020528060005260406000206000915054906101000a900473ffffffffffffffffffffffffffffffffffffffff1681565b60008054906101000a900473ffffffffffffffffffffffffffffffffffffffff1673ffffffffffffffffffffffffffffffffffffffff163373ffffffffffffffffffffffffffffffffffffffff1614610960576040517f08c379a000000000000000000000000000000000000000000000000000000000815260040161095790611528565b60405180910390fd5b610968610cd9565b6109a7576040517f08c379a000000000000000000000000000000000000000000000000000000000815260040161099e90611594565b60405180910390fd5b6005805490506001546109ba91906115e3565b47146109fb576040517f08c379a00000000000000000000000000000000000000000000000000000000081526004016109f290611671565b60405180910390fd5b60008060005b600580549050424483604051602001610a1c939291906116b2565b6040516020818303038152906040528051906020012060001c610a3f919061171e565b925060058381548110610a5557610a5461174f565b5b9060005260206000200160000160009054906101000a900473ffffffffffffffffffffffffffffffffffffffff1691508080610a909061177e565b91505060058381548110610aa757610aa661174f565b5b9060005260206000200160000160149054906101000a900460ff168015610ace5750603281105b610a015760058381548110610ae657610ae561174f565b5b9060005260206000200160000160149054906101000a900460ff1615610b41576040517f08c379a0000000000000000000000000000000000000000000000000000000008152600401610b3890611812565b60405180910390fd5b60004790508273ffffffffffffffffffffffffffffffffffffffff166108fc829081150290604051600060405180830381858888f19350505050158015610b8c573d6000803e3d6000fd5b508260086000600354815260200190815260200160002060006101000a81548173ffffffffffffffffffffffffffffffffffffffff021916908373ffffffffffffffffffffffffffffffffffffffff160217905550600160058581548110610bf757610bf661174f565b5b9060005260206000200160000160146101000a81548160ff0219169083151502179055508273ffffffffffffffffffffffffffffffffffffffff166003547ffee5b04775e1cd2311ed22cd00f5d2403aff38ff6f71d6d393f51854ed6bc98683604051610c649190611030565b60405180910390a360036000815480929190610c7f9061177e565b919050555050505050565b6000600580549050905090565b600460009054906101000a900460ff1681565b60076020528160005260406000206020528060005260406000206000915091509054906101000a900460ff1681565b60006002546005805490501015610cf35760009050610dc5565b60005b600580549050811015610dbf57600760006003548152602001908152602001600020600060058381548110610d2e57610d2d61174f565b5b9060005260206000200160000160009054906101000a900473ffffffffffffffffffffffffffffffffffffffff1673ffffffffffffffffffffffffffffffffffffffff1673ffffffffffffffffffffffffffffffffffffffff16815260200190815260200160002060009054906101000a900460ff16610db2576000915050610dc5565b8080600101915050610cf6565b50600190505b90565b60008054906101000a900473ffffffffffffffffffffffffffffffffffffffff1681565b600660003373ffffffffffffffffffffffffffffffffffffffff1673ffffffffffffffffffffffffffffffffffffffff16815260200190815260200160002060009054906101000a900460ff16610e78576040517f08c379a0000000000000000000000000000000000000000000000000000000008152600401610e6f9061187e565b60405180910390fd5b6001543414610ebc576040517f08c379a0000000000000000000000000000000000000000000000000000000008152600401610eb3906118ea565b60405180910390fd5b60076000600354815260200190815260200160002060003373ffffffffffffffffffffffffffffffffffffffff1673ffffffffffffffffffffffffffffffffffffffff16815260200190815260200160002060009054906101000a900460ff1615610f5c576040517f08c379a0000000000000000000000000000000000000000000000000000000008152600401610f5390611956565b60405180910390fd5b600160076000600354815260200190815260200160002060003373ffffffffffffffffffffffffffffffffffffffff1673ffffffffffffffffffffffffffffffffffffffff16815260200190815260200160002060006101000a81548160ff0219169083151502179055503373ffffffffffffffffffffffffffffffffffffffff167f6ef95f06320e7a25a04a175ca677b7052bdd97131872c2192525a629f51be7703460405161100d9190611030565b60405180910390a2565b6000819050919050565b61102a81611017565b82525050565b60006020820190506110456000830184611021565b92915050565b600080fd5b61105981611017565b811461106457600080fd5b50565b60008135905061107681611050565b92915050565b6000602082840312156110925761109161104b565b5b60006110a084828501611067565b91505092915050565b600073ffffffffffffffffffffffffffffffffffffffff82169050919050565b60006110d4826110a9565b9050919050565b6110e4816110c9565b82525050565b60008115159050919050565b6110ff816110ea565b82525050565b600060408201905061111a60008301856110db565b61112760208301846110f6565b9392505050565b600060208201905061114360008301846110db565b92915050565b600081519050919050565b600082825260208201905092915050565b6000819050602082019050919050565b61117e816110c9565b82525050565b61118d816110ea565b82525050565b6040820160008201516111a96000850182611175565b5060208201516111bc6020850182611184565b50505050565b60006111ce8383611193565b60408301905092915050565b6000602082019050919050565b60006111f282611149565b6111fc8185611154565b935061120783611165565b8060005b8381101561123857815161121f88826111c2565b975061122a836111da565b92505060018101905061120b565b5085935050505092915050565b6000602082019050818103600083015261125f81846111e7565b905092915050565b611270816110c9565b811461127b57600080fd5b50565b60008135905061128d81611267565b92915050565b6000602082840312156112a9576112a861104b565b5b60006112b78482850161127e565b91505092915050565b60006020820190506112d560008301846110f6565b92915050565b600080604083850312156112f2576112f161104b565b5b600061130085828601611067565b92505060206113118582860161127e565b9150509250929050565b600082825260208201905092915050565b7f4f6e6c792061646d696e2063616e20636c6f7365000000000000000000000000600082015250565b600061136260148361131b565b915061136d8261132c565b602082019050919050565b6000602082019050818103600083015261139181611355565b9050919050565b7f41726973616e206e6f7420616374697665000000000000000000000000000000600082015250565b60006113ce60118361131b565b91506113d982611398565b602082019050919050565b600060208201905081810360008301526113fd816113c1565b9050919050565b7f47726f75702069732066756c6c00000000000000000000000000000000000000600082015250565b600061143a600d8361131b565b915061144582611404565b602082019050919050565b600060208201905081810360008301526114698161142d565b9050919050565b7f416c7265616479206a6f696e6564000000000000000000000000000000000000600082015250565b60006114a6600e8361131b565b91506114b182611470565b602082019050919050565b600060208201905081810360008301526114d581611499565b9050919050565b7f4f6e6c792061646d696e2063616e206472617700000000000000000000000000600082015250565b600061151260138361131b565b915061151d826114dc565b602082019050919050565b6000602082019050818103600083015261154181611505565b9050919050565b7f4e6f7420616c6c207061727469636970616e7473207061696400000000000000600082015250565b600061157e60198361131b565b915061158982611548565b602082019050919050565b600060208201905081810360008301526115ad81611571565b9050919050565b7f4e487b7100000000000000000000000000000000000000000000000000000000600052601160045260246000fd5b60006115ee82611017565b91506115f983611017565b925082820261160781611017565b9150828204841483151761161e5761161d6115b4565b5b5092915050565b7f42616c616e6365206d69736d6174636800000000000000000000000000000000600082015250565b600061165b60108361131b565b915061166682611625565b602082019050919050565b6000602082019050818103600083015261168a8161164e565b9050919050565b6000819050919050565b6116ac6116a782611017565b611691565b82525050565b60006116be828661169b565b6020820191506116ce828561169b565b6020820191506116de828461169b565b602082019150819050949350505050565b7f4e487b7100000000000000000000000000000000000000000000000000000000600052601260045260246000fd5b600061172982611017565b915061173483611017565b925082611744576117436116ef565b5b828206905092915050565b7f4e487b7100000000000000000000000000000000000000000000000000000000600052603260045260246000fd5b600061178982611017565b91507fffffffffffffffffffffffffffffffffffffffffffffffffffffffffffffffff82036117bb576117ba6115b4565b5b600182019050919050565b7f416c6c207061727469636970616e747320616c726561647920776f6e00000000600082015250565b60006117fc601c8361131b565b9150611807826117c6565b602082019050919050565b6000602082019050818103600083015261182b816117ef565b9050919050565b7f4e6f742061207061727469636970616e74000000000000000000000000000000600082015250565b600061186860118361131b565b915061187382611832565b602082019050919050565b600060208201905081810360008301526118978161185b565b9050919050565b7f496e636f727265637420616d6f756e7400000000000000000000000000000000600082015250565b60006118d460108361131b565b91506118df8261189e565b602082019050919050565b60006020820190508181036000830152611903816118c7565b9050919050565b7f416c72656164792070616964207468697320726f756e64000000000000000000600082015250565b600061194060178361131b565b915061194b8261190a565b602082019050919050565b6000602082019050818103600083015261196f81611933565b905091905056fea264697066735822122096f0fa79515c83a864e5a49e5849ea26bbb5908473efd36a191e27fb55b265a564736f6c634300081c0033",
  "linkReferences": {},
  "deployedLinkReferences": {}
}